{
  "contractName": "GameOfLife",
  "abi": [
    {
      "inputs": [],
      "stateMutability": "nonpayable",
      "type": "constructor"
    },
    {
      "anonymous": false,
      "inputs": [
        {
          "indexed": false,
          "internalType": "uint256[]",
          "name": "cells",
          "type": "uint256[]"
        }
      ],
      "name": "Cells",
      "type": "event"
    },
    {
      "anonymous": false,
      "inputs": [
        {
          "indexed": false,
          "internalType": "string",
          "name": "text",
          "type": "string"
        }
      ],
      "name": "log",
      "type": "event"
    },
    {
      "inputs": [
        {
          "internalType": "uint256",
          "name": "",
          "type": "uint256"
        }
      ],
      "name": "cells",
      "outputs": [
        {
          "internalType": "uint256",
          "name": "",
          "type": "uint256"
        }
      ],
      "stateMutability": "view",
      "type": "function",
      "constant": true
    },
    {
      "inputs": [],
      "name": "iterations",
      "outputs": [
        {
          "internalType": "int256",
          "name": "",
          "type": "int256"
        }
      ],
      "stateMutability": "view",
      "type": "function",
      "constant": true
    },
    {
      "inputs": [],
      "name": "myblock",
      "outputs": [
        {
          "internalType": "uint256",
          "name": "",
          "type": "uint256"
        }
      ],
      "stateMutability": "view",
      "type": "function",
      "constant": true
    },
    {
      "inputs": [],
      "name": "step",
      "outputs": [],
      "stateMutability": "nonpayable",
      "type": "function"
    },
    {
      "inputs": [],
      "name": "getCells",
      "outputs": [
        {
          "internalType": "uint256[]",
          "name": "",
          "type": "uint256[]"
        }
      ],
      "stateMutability": "view",
      "type": "function",
      "constant": true
    },
    {
      "inputs": [],
      "name": "getMyBlock",
      "outputs": [
        {
          "internalType": "uint256",
          "name": "",
          "type": "uint256"
        }
      ],
      "stateMutability": "view",
      "type": "function",
      "constant": true
    },
    {
      "inputs": [
        {
          "internalType": "uint256",
          "name": "c0",
          "type": "uint256"
        },
        {
          "internalType": "uint256",
          "name": "c1",
          "type": "uint256"
        },
        {
          "internalType": "uint256",
          "name": "c2",
          "type": "uint256"
        },
        {
          "internalType": "uint256",
          "name": "c3",
          "type": "uint256"
        }
      ],
      "name": "setCells",
      "outputs": [],
      "stateMutability": "nonpayable",
      "type": "function"
    }
  ],
  "bytecode": "0x60806040523480156200001157600080fd5b506101006020800261ffff16816200002557fe5b0461ffff1667ffffffffffffffff811180156200004157600080fd5b50604051908082528060200260200182016040528015620000715781602001602082028036833780820191505090505b5060009080519060200190620000899291906200023a565b50600060019080546200009e9291906200028c565b5060005b60148160010b1215620001635760006020600183010260018301019050620000d28160016200017f60201b60201c565b6020600283010260028301019050620000f38160016200017f60201b60201c565b6020600283010260038301019050620001148160016200017f60201b60201c565b6020600383010260018301019050620001358160016200017f60201b60201c565b6020600383010260028301019050620001568160016200017f60201b60201c565b50600681019050620000a2565b5060016000908054620001789291906200028c565b5062000302565b60006101008360010b63ffffffff16816200019657fe5b04905060006101008460010b63ffffffff1681620001b057fe5b06905060008360000b1315620001fc578063ffffffff166001901b60018363ffffffff1681548110620001df57fe5b906000526020600020016000828254179250508190555062000234565b8063ffffffff166001901b1960018363ffffffff16815481106200021c57fe5b90600052602060002001600082825416925050819055505b50505050565b82805482825590600052602060002090810192821562000279579160200282015b82811115620002785782518255916020019190600101906200025b565b5b509050620002889190620002e3565b5090565b828054828255906000526020600020908101928215620002d05760005260206000209182015b82811115620002cf578254825591600101919060010190620002b2565b5b509050620002df9190620002e3565b5090565b5b80821115620002fe576000816000905550600101620002e4565b5090565b61074e80620003126000396000f3fe608060405234801561001057600080fd5b506004361061007d5760003560e01c80634358d2be1161005b5780634358d2be14610141578063aeab427f1461015f578063e25fe1751461017d578063f2f098eb146101875761007d565b80631941fd1414610082578063257d85b4146100c4578063374aed97146100e2575b600080fd5b6100ae6004803603602081101561009857600080fd5b81019080803590602001909291905050506101d3565b6040518082815260200191505060405180910390f35b6100cc6101f7565b6040518082815260200191505060405180910390f35b6100ea6101fd565b6040518080602001828103825283818151815260200191508051906020019060200280838360005b8381101561012d578082015181840152602081019050610112565b505050509050019250505060405180910390f35b610149610255565b6040518082815260200191505060405180910390f35b61016761025b565b6040518082815260200191505060405180910390f35b610185610265565b005b6101d16004803603608081101561019d57600080fd5b8101908080359060200190929190803590602001909291908035906020019092919080359060200190929190505050610466565b005b600081815481106101e357600080fd5b906000526020600020016000915090505481565b60035481565b6060600080548060200260200160405190810160405280929190818152602001828054801561024b57602002820191906000526020600020905b815481526020019060010190808311610237575b5050505050905090565b60025481565b6000600354905090565b60008054905067ffffffffffffffff8111801561028157600080fd5b506040519080825280602002602001820160405280156102b05781602001602082028036833780820191505090505b50600190805190602001906102c692919061065c565b506000600490505b600460200360010b8160010b1215610449576000600490505b600460200360010b8160010b121561043b576000602083028201905060006103176001602084030360010b6104e6565b8101905061032a6020830360010b6104e6565b810190506103406001602084030160010b6104e6565b810190506103536001830360010b6104e6565b810190506103666001830160010b6104e6565b8101905061037c6001602084010360010b6104e6565b8101905061038f6020830160010b6104e6565b810190506103a56001602084010160010b6104e6565b8101905060016103b78360010b6104e6565b14156104165760038113156103d6576103d18260006105a7565b610411565b60028114806103e55750600381145b156103fa576103f58260016105a7565b610410565b600281121561040f5761040e8260006105a7565b5b5b5b61042c565b600381141561042b5761042a8260016105a7565b5b5b505080806001019150506102e7565b5080806001019150506102ce565b506001600090805461045c9291906106a9565b5043600381905550565b836000808154811061047457fe5b906000526020600020018190555082600060018154811061049157fe5b90600052602060002001819055508160006002815481106104ae57fe5b90600052602060002001819055508060006003815481106104cb57fe5b90600052602060002001819055504360038190555050505050565b6000808260030b12156104ff576020800260010b820191505b6020800260010b8260030b1261051b576020800260010b820391505b6020800260010b60030b8260030b8161053057fe5b07915060006101008363ffffffff168161054657fe5b04905060006101008463ffffffff168161055c57fe5b0690506001808263ffffffff1660008563ffffffff168154811061057c57fe5b9060005260206000200154901c16141561059b576001925050506105a2565b6000925050505b919050565b60006101008360010b63ffffffff16816105bd57fe5b04905060006101008460010b63ffffffff16816105d657fe5b06905060008360000b131561061f578063ffffffff166001901b60018363ffffffff168154811061060357fe5b9060005260206000200160008282541792505081905550610656565b8063ffffffff166001901b1960018363ffffffff168154811061063e57fe5b90600052602060002001600082825416925050819055505b50505050565b828054828255906000526020600020908101928215610698579160200282015b8281111561069757825182559160200191906001019061067c565b5b5090506106a591906106fb565b5090565b8280548282559060005260206000209081019282156106ea5760005260206000209182015b828111156106e95782548255916001019190600101906106ce565b5b5090506106f791906106fb565b5090565b5b808211156107145760008160009055506001016106fc565b509056fea26469706673582212204cbd7545b1402473795c5e7d6273bb28ef3417ad5b912a906413fb53780e726664736f6c63430007040033",
  "immutableReferences": {},
  "source": "// SPDX-License-Identifier: MIT\npragma solidity ^0.7.4;\n\ncontract GameOfLife {\n    int16 constant rows = 32;\n    int16 constant cols = 32;\n    uint256[] public cells;\n    uint256[] newcells;\n    int public iterations;\n    uint public myblock;\n    \n    event log(string text);\n    event Cells(uint256[] cells);\n\n    constructor ()  {\n        // a bit for each cell - stored in an array of 256 bit numbers\n        // for default of  32 x 32 this is 4 x 256 bit numbers\n        cells = new uint256[](uint16(rows * cols) / 256);\n\n        newcells = cells;\n\n        // set up a few 'sliders'\n        for (int16 i=0; i<20; i +=6) {\n            int16 pos;\n            pos = ((i+1) + (i+1)*cols) ;\n            set(pos,1);\n            pos = ((i+2) + (i+2)*cols) ;\n            set(pos,1);\n            pos = ((i+3) + (i+2)*cols) ;\n            set(pos,1);\n            pos = ((i+1) + (i+3)*cols) ;\n            set(pos,1);\n            pos = ((i+2) + (i+3)*cols) ;\n            set(pos,1);\n        }\n        \n        cells = newcells;\n    }\n    \n   \n    // get for a particular row/col return the cell state (1 alive, 0 dead)\n    function get(int32 pos) view internal returns (int) {\n\n        if (pos<0) {\n            pos += rows*cols;\n        } \n        if (pos >= rows*cols) {\n            pos -= rows*cols;\n        }\n        // make sure pos always is a valid value\n        pos = pos % int32(rows*cols);\n        // the linear array is held in 4 x 256 unsigned integers\n        uint32 i = uint32(pos) / 256;\n        uint32 j = uint32(pos) % 256;\n        // if the j-th bit set?\n        if ((cells[i] >> j) & 0x01 == 1 ) {\n            return 1;\n        } else {\n            return 0;\n        }\n    }\n    function set(int16 pos, int8 value) internal {\n        // the linear array is held in 4 x 256 unsigned integers \n        uint32 i = uint32(pos) / 256;\n        uint32 j = uint32(pos) % 256;\n        // if value is 1 then set the j-th bit\n        if (value>0){\n            newcells[i] |= (1 << j);  // set this bit\n        } else {\n            newcells[i] &= ~(1 << j);  // turn off this bit\n        }\n        \n    }\n\n// Overpopulation: if a living cell is surrounded by more than three living cells, it dies.\n// Stasis: if a living cell is surrounded by two or three living cells, it survives.\n// Underpopulation: if a living cell is surrounded by fewer than two living cells, it dies.\n// Reproduction: if a dead cell is surrounded by exactly three cells, it becomes a live cell.\n   \n    // step - perform a single step of the Conway's game of life\n    function step() public {\n        \n        newcells = new uint256[](cells.length);\n        // skip the edge row/col to avoid checking for out of bounds\n        for (int16 row=4; row<rows-4; row++) {\n            for (int16 col=4; col<cols-4; col++) {\n                \n                int16 pos = (col + row*cols);\n                int count = 0;\n\n                // count_neighbours - count the number of cells that are direct neighbours   \n                count += get(pos - cols - 1);  //(row-1,col-1); \n                count += get(pos - cols);      //(row-1,col  );\n                count += get(pos - cols + 1);  //row-1,col+1);\n                \n                count += get(pos - 1); //(row,col-1);\n                count += get(pos + 1); //(row,col+1);\n                \n                count += get(pos + cols -1); //(row+1,col-1);\n                count += get(pos + cols); //(row+1,col  );\n                count += get(pos + cols + 1); //(row+1,col+1);\n                        \n                // if current cell is alive\n                if (get(pos) == 1) {\n                    if (count > 3) {\n                        set(pos,0);\n                    } else if (count == 2 || count == 3) {\n                        set(pos,1);\n                    } else if (count < 2) {\n                        set(pos,0);\n                    }\n                } else { // dead cell\n                    if (count == 3) {\n                        set(pos,1);\n                    }\n                }\n            }\n            \n        }\n        cells = newcells;\n\n        myblock = block.number;\n        //emit Cells(cells);\n    }\n    \n    function getCells() public view returns (uint256[] memory) {\n        return cells;\n    }\n\n    function getMyBlock() public view returns (uint256) {\n        return myblock;\n    }\n    \n    function setCells(uint256 c0, uint256 c1, uint256 c2, uint256 c3) public {\n        cells[0] = c0;\n        cells[1] = c1;\n        cells[2] = c2;\n        cells[3] = c3;\n\n        myblock = block.number;\n    }   \n}",
  "sourcePath": "/Users/niall/gameoflife/contracts/gol.sol",
  "compiler": {
    "name": "solc",
    "version": "0.7.4+commit.3f05b770.Emscripten.clang"
  },
  "schemaVersion": "3.3.3",
  "updatedAt": "2021-03-07T13:13:14.653Z",
  "networkType": "ethereum",
  "devdoc": {
    "kind": "dev",
    "methods": {},
    "version": 1
  },
  "userdoc": {
    "kind": "user",
    "methods": {},
    "version": 1
  }
}